:100000000020001049010000CD010000D5010000D2
:1000100000000000000000000000000000000000E0
:10002000000000000000000000000000DD010000F2
:100030000000000000000000E5010000ED010000EC
:10004000F5010000F5010000F5010000F5010000D8
:10005000F5010000F5010000F5010000F5010000C8
:10006000F5010000F5010000F5010000F5010000B8
:10007000F5010000F5010000F5010000F5010000A8
:10008000F5010000F5010000F5010000F501000098
:10009000F5010000F5010000000000000000000074
:1000A000F5010000F5010000F5010000000000006E
:1000B000F5010000F5010000F5010000F501000068
:1000C00018080000000000100400000004000010E8
:1000D0000400000080B588B000AFF860B9607A60B5
:1000E000BB68FB61FB68BB6100237B610AE0FB69C5
:1000F0001A1DFA61BA69111DB96112681A607B692B
:1001000004337B617A697B689A42F0D3BD4608B0BC
:1001100080BDC04680B584B000AF786039607B6830
:10012000FB600023BB6007E0FB681A1DFA60002239
:100130001A60BB680433BB60BA683B689A42F3D369
:10014000BD4604B080BDC04680B584B000AF1C4B36
:10015000FB6016E0FB681A1DFA601B68BB60FB6859
:100160001A1DFA601B687B60FB681A1DFA601B6829
:100170003B60B9687A683B68081C111C1A1CFFF7C1
:10018000A9FFFA680F4B9A42E4D30FE0FB681A1DEF
:10019000FA601B687B60FB681A1DFA601B683B6095
:1001A0007A683B68101C191CFFF7B4FFFA68064B0D
:1001B0009A42EBD300F086FA00F0CCFAFEE7C04694
:1001C000C0000000CC000000D400000080B500AFEB
:1001D000FEE7C04680B500AFFEE7C04680B500AF81
:1001E000FEE7C04680B500AFFEE7C04680B500AF71
:1001F000FEE7C04680B500AFFEE7C046FFFFFFFF49
:10020000FFFFFFFFFFFFFFFFFFFFFFFFFFFFFFFFFE
:10021000FFFFFFFFFFFFFFFFFFFFFFFFFFFFFFFFEE
:10022000FFFFFFFFFFFFFFFFFFFFFFFFFFFFFFFFDE
:10023000FFFFFFFFFFFFFFFFFFFFFFFFFFFFFFFFCE
:10024000FFFFFFFFFFFFFFFFFFFFFFFFFFFFFFFFBE
:10025000FFFFFFFFFFFFFFFFFFFFFFFFFFFFFFFFAE
:10026000FFFFFFFFFFFFFFFFFFFFFFFFFFFFFFFF9E
:10027000FFFFFFFFFFFFFFFFFFFFFFFFFFFFFFFF8E
:10028000FFFFFFFFFFFFFFFFFFFFFFFFFFFFFFFF7E
:10029000FFFFFFFFFFFFFFFFFFFFFFFFFFFFFFFF6E
:1002A000FFFFFFFFFFFFFFFFFFFFFFFFFFFFFFFF5E
:1002B000FFFFFFFFFFFFFFFFFFFFFFFFFFFFFFFF4E
:1002C000FFFFFFFFFFFFFFFFFFFFFFFFFFFFFFFF3E
:1002D000FFFFFFFFFFFFFFFFFFFFFFFFFFFFFFFF2E
:1002E000FFFFFFFFFFFFFFFFFFFFFFFFFFFFFFFF1E
:1002F000FFFFFFFFFFFFFFFFFFFFFFFFFFFFFFFF0E
:1003000080B500AF00F0DEF900F08CF900F02EF8B7
:1003100000F052F800F08EF800F0D2F8A023DA05D1
:10032000A023D9050D4BCB58082159400B4BD15078
:100330000B4A0B49094BCB5810215940074BD15060
:10034000084A0849054BCB5820215940034BD1504E
:10035000054B181C00F088F8E0E7C046FC3F0000A1
:10036000000003500000025040420F0080B500AF73
:100370000F4B0F4AD26A03218A43DA62A023DA05BF
:10038000A023D90580231B02CB58082119438023C1
:100390001B02D150A023DA05A023D905054BCB5869
:1003A0000821181C8843011C024BD150BD4680BD5A
:1003B00000400440FC3F000080B500AF194B194AD3
:1003C000D26B03218A43DA63174A174980231B0241
:1003D000CB581021194380231B02D150124A1249D5
:1003E000124BCB5810211943104BD1500D4B0D4AD5
:1003F000526C03218A435A640D4A0D4980231B0223
:10040000CB582021194380231B02D150084A0849A8
:10041000064BCB582021181C8843011C034BD1509C
:10042000BD4680BD0040044000000350FC3F00007A
:100430000000025098B500AF084C094B1B68181C0F
:10044000084900F08EF9031C013B6360034B034A2B
:10045000126804210A431A60BD4698BD10E000E00E
:100460000000001040420F0080B582B000AF7860FD
:10047000114B114A126801210A431A600F4B0022E6
:100480001A600AE00C4B1A6880235B021340F9D013
:100490000A4B1B685A1C094B1A60084B1A687B6888
:1004A0009A42EFD3044B044A126801218A431A602E
:1004B000BD4602B080BDC04610E000E00400001060
:1004C00080B500AF544B544A926D07218A439A6518
:1004D000524A524980231B02CB588021C90019433C
:1004E00080231B02D1504D4A4C494D4BCB588021A3
:1004F000C90019434A4BD150474B474AD26D072197
:100500008A43DA65454A454980231B02CB580421BA
:10051000194380231B02D150404A4049404BCB58DD
:10052000042119433E4BD1503B4B3B4A926E07216D
:100530008A4301210A439A66A023DA05A023D9053C
:1005400080231B02CB588021C900194380231B0242
:10055000D150A023DA05A023D905314BCB588021F7
:10056000C90019432E4BD1502B4B2B4A126F072138
:100570008A431A67294A294980231B02CB588021C4
:100580000901194380231B02D150244A2349244BDB
:10059000CB58802109011943214BD1501E4B1E4AD3
:1005A000526E07218A435A66A023DA05A023D90593
:1005B00080231B02CB5880218900194380231B0212
:1005C000D150A023DA05A023D905154BCB588021A3
:1005D00089001943124BD1500F4B0F4A126E07215D
:1005E0008A431A66A023DA05A023D90580231B02BB
:1005F000CB5880214900194380231B02D150A023EE
:10060000DA05A023D905064BCB58802149001943B0
:10061000034BD150BD4680BD004004400000025055
:10062000FC3F000038B5234C1F25626A616AD20581
:10063000214B120F294092004900D058023100F09E
:1006400090F8226F0321231C0A401C4C022A26D05A
:100650008A4209D0012A05D11A6C0A40022A1ED00A
:10066000032A1ED0164A1DE0196C0A40022A0DD03A
:10067000032A16D0C0209A6840001149024203D1D3
:100680009A6815400135694321600CE0C0229968E1
:100690005200114203D19A68154001356843206029
:1006A00001E000222260996F206800F05AF8206073
:1006B00038BDC04600800440D8070000000000108C
:1006C000001BB7001D4B8E229200995820208143B9
:1006D00010B5995000221A62C822C046013A002A79
:1006E000FBD10121196459645A645964596C134A45
:1006F000C807FBD5232191608E21890050588024A2
:10070000A0435050D86801210C4A0842FAD0032077
:1007100010670020516750675167596F01221142DD
:10072000FBD0064B06499A67064BD967064B1A6001
:10073000064B1A60064B1A6010BDC046008004408C
:100740005F000100048004409480044098800440CD
:100750009C80044008B5FFF7D3FD08BD03000B43A0
:1007600021D4002931D00122D207030901E0090177
:1007700012099942FBD9430801E049005208994205
:10078000FBD900E04908401A07D35241FAD3014689
:100790001046704749084018F7D29218FAD340180B
:1007A000014610467047CB0F00D04942021000D5D9
:1007B0004042534008B5FFF7D4FF0CBC521000D3A1
:1007C0004042002A00D549421847F446002000F074
:1007D00001F8604770470000801A060020A107005A
:1007E00000350C00E0C81000C05C1500006A18005D
:1007F00040771B0080841E00C0912100009F2400D0
:1008000040AC2700E032290020402C00604D2F0032
:0808100000D4300040E1330088
:04081800006CDC0292
:0400000300000149AF
:00000001FF
