:100000000020001049010000CD010000D5010000D2
:1000100000000000000000000000000000000000E0
:10002000000000000000000000000000DD010000F2
:100030000000000000000000E5010000ED010000EC
:10004000F5010000F5010000F5010000F5010000D8
:10005000F5010000F5010000F5010000F5010000C8
:10006000F5010000F5010000F5010000F5010000B8
:10007000F5010000F5010000F5010000F5010000A8
:10008000F5010000F5010000F5010000F501000098
:10009000F5010000F5010000000000000000000074
:1000A000F5010000F5010000F5010000000000006E
:1000B00081050000110500009904000041040000C2
:1000C000300B0000000000100400000004000010CD
:1000D0000000000080B588B000AFF860B9607A60B9
:1000E000BB68FB61FB68BB6100237B610AE0FB69C5
:1000F0001A1DFA61BA69111DB96112681A607B692B
:1001000004337B617A697B689A42F0D3BD4608B0BC
:1001100080BDC04680B584B000AF786039607B6830
:10012000FB600023BB6007E0FB681A1DFA60002239
:100130001A60BB680433BB60BA683B689A42F3D369
:10014000BD4604B080BDC04680B584B000AF1C4B36
:10015000FB6016E0FB681A1DFA601B68BB60FB6859
:100160001A1DFA601B687B60FB681A1DFA601B6829
:100170003B60B9687A683B68081C111C1A1CFFF7C1
:10018000A9FFFA680F4B9A42E4D30FE0FB681A1DEF
:10019000FA601B687B60FB681A1DFA601B683B6095
:1001A0007A683B68101C191CFFF7B4FFFA68064B0D
:1001B0009A42EBD300F032FC00F078FCFEE7C04638
:1001C000C0000000CC000000D400000080B500AFEB
:1001D000FEE7C04680B500AFFEE7C04680B500AF81
:1001E000FEE7C04680B500AFFEE7C04680B500AF71
:1001F000FEE7C04680B500AFFEE7C046FFFFFFFF49
:10020000FFFFFFFFFFFFFFFFFFFFFFFFFFFFFFFFFE
:10021000FFFFFFFFFFFFFFFFFFFFFFFFFFFFFFFFEE
:10022000FFFFFFFFFFFFFFFFFFFFFFFFFFFFFFFFDE
:10023000FFFFFFFFFFFFFFFFFFFFFFFFFFFFFFFFCE
:10024000FFFFFFFFFFFFFFFFFFFFFFFFFFFFFFFFBE
:10025000FFFFFFFFFFFFFFFFFFFFFFFFFFFFFFFFAE
:10026000FFFFFFFFFFFFFFFFFFFFFFFFFFFFFFFF9E
:10027000FFFFFFFFFFFFFFFFFFFFFFFFFFFFFFFF8E
:10028000FFFFFFFFFFFFFFFFFFFFFFFFFFFFFFFF7E
:10029000FFFFFFFFFFFFFFFFFFFFFFFFFFFFFFFF6E
:1002A000FFFFFFFFFFFFFFFFFFFFFFFFFFFFFFFF5E
:1002B000FFFFFFFFFFFFFFFFFFFFFFFFFFFFFFFF4E
:1002C000FFFFFFFFFFFFFFFFFFFFFFFFFFFFFFFF3E
:1002D000FFFFFFFFFFFFFFFFFFFFFFFFFFFFFFFF2E
:1002E000FFFFFFFFFFFFFFFFFFFFFFFFFFFFFFFF1E
:1002F000FFFFFFFFFFFFFFFFFFFFFFFFFFFFFFFF0E
:1003000080B582B000AF021CFB1D1A70064BFA1DAF
:100310001278111C1F220A400121081C9040021C67
:100320001A60BD4602B080BD00E100E080B582B039
:1003300000AF021CFB1D1A70084AFB1D1B78191C1C
:100340001F230B400121081C9840031C191CC023CB
:100350005B00D150BD4602B080BDC04600E100E068
:10036000B0B582B000AF021C3960FB1D1A70FB1DD6
:100370001B787F2B32D93049FB1D1B781A1C0F23A9
:100380001340083B98082C4AFB1D1B781C1C0F23AC
:100390002340083B9B0806339B00D3185B68FA1D7B
:1003A0001278141C03222240D200FF24251C954001
:1003B0002A1CD2431A403B689C01FF231C40FB1DB2
:1003C0001B781D1C03232B40DB00251C9D402B1C90
:1003D0001A43831D9B00CB185A6029E0174BFA1D66
:1003E000127852B292081549F81D007840B2800880
:1003F000C03080004158F81D0078041C03202040C4
:10040000C000FF24251C8540281CC04308403968D3
:100410008C01FF210C40F91D09780D1C0321294096
:10042000C900251C8D40291C0143C0329200D150C7
:10043000BD4602B0B0BDC04600ED00E000E100E006
:1004400080B500AFA023DA050E4BD25880231340AD
:1004500008D00D4A0C490D4BCB588021C90059409A
:100460000A4BD1500A4B181C00F0B2FAA023DA054F
:10047000A023D905074BCB5880211943054BD150F8
:10048000BD4680BD1880000000000250FC3F000007
:10049000F04902001C80000080B500AF164A174BDF
:1004A000D25880235B00134007D0154A1449154BDE
:1004B000CB5802215940134BD1500F4A0F4BD25801
:1004C0008023DB00134007D00D4A0D490D4BCB585C
:1004D000802159400B4BD1500B4B181C00F078FA7F
:1004E000054A0549094BCB58A021C9001943074BC0
:1004F000D150BD4680BDC0460000015018800000AC
:1005000000000250FC3F0000F04902001C80000087
:1005100080B500AF144A154BD2581023134007D0B2
:10052000134A1349134BCB5810215940114BD1504A
:100530000D4A0E4BD2582023134007D00A4A0A49CD
:100540000C4BCB58042159400A4BD1500A4B181C74
:1005500000F03EFA044A0449084BCB5830211943B5
:10056000064BD150BD4680BD0000025018800000EF
:1005700000000150FC3F0000F04902001C80000018
:1005800080B500AF0E4A0F4BD2581023134008D04D
:100590000D4A0D490D4BCB588021490059400B4B5A
:1005A000D1500B4B181C00F013FA054A0449094BB3
:1005B000CB5810211943074BD150BD4680BDC046D2
:1005C000000003501880000000000250FC3F0000B3
:1005D000F04902001C80000080B500AF00F01EFA58
:1005E00000F008F800F09AF800F07AF900F0D6F977
:1005F000FEE7C04680B500AF424B424A126D1B2158
:100600008A4310210A431A65A023DA05A023D905DD
:1006100080231B02CB588021181C8843011C802397
:100620001B02D150A023DA05A023D905364BCB58A5
:1006300080211943344BD150324B324AD26E1B21A8
:100640008A4310210A43DA662E4B2E4A52691B2137
:100650008A4310210A435A612C4A2C4980231B02E9
:10066000C9582B4B194080231B02D150274A2749D8
:10067000254BCB58A021C9001943234BD150214B06
:10068000204A126C1B218A4310210A431A641D4B15
:100690001C4A526C1B218A4310210A435A641D4A8A
:1006A0001C4980231B02CB583021181C8843011C95
:1006B00080231B02D150174A1649134BCB583021C7
:1006C0001943114BD1500F4B0E4AD26B1B218A4359
:1006D00010210A43DA63104A0F4980231B02CB58CA
:1006E0001021181C8843011C80231B02D1500A4A88
:1006F0000949054BCB5810211943034BD150BD4636
:1007000080BDC04600400440FC3F00000000015096
:10071000FFFAFFFF000002500000035080B500AF59
:10072000664A66498023CB58402119438023D15023
:10073000A023DA05A023D905614BCB5880211943AA
:100740005F4BD150A023DA05A023D9055D4BCB58D0
:100750008021181C8843011C5A4BD150A023DA0574
:10076000A023D905584BCB588021181C8843011C65
:10077000554BD150A023DA05A023D905534BCB58B4
:100780008021181C8843011C504BD1501F20FFF7BB
:10079000B7FD1F200221FFF7E3FD1F20FFF7C6FD75
:1007A0004B4A4B49464BCB58A021C9001943444BF7
:1007B000D150474A4649434BC958464B1940414BD3
:1007C000D150434A4249404BC958424B19403E4BD5
:1007D000D1503F4A3E493D4BC9583E4B19403B4BD7
:1007E000D1501E20FFF78CFD1E200221FFF7B8FD1F
:1007F0001E20FFF79BFD384A3749314BCB5830213B
:1008000019432F4BD150344A33492E4BCB5830210A
:10081000181C8843011C2B4BD1502F4A2E492A4BC0
:10082000CB583021181C8843011C274BD1502A4A31
:100830002949264BCB583021181C8843011C234BD7
:10084000D1501D20FFF75CFD1D200221FFF788FD20
:100850001D20FFF76BFD214A2049194BCB58102171
:100860001943174BD1501D4A1C49164BCB58102128
:10087000181C8843011C134BD150184A1749124BBE
:10088000CB581021181C8843011C0F4BD150134A20
:1008900012490E4BCB581021181C8843011C0B4BDE
:1008A000D1501C20FFF72CFD1C200221FFF758FD22
:1008B0001C20FFF73BFDBD4680BDC04600800440C4
:1008C0001080000004800000088000000C80000000
:1008D00000000150FFFAFFFF00000250000003502B
:1008E00080B500AF274A27499423CB580321181C11
:1008F0008843011C9423D150234A234980231B029F
:10090000CB581021194380231B02D1501E4A1E4987
:100910001E4BCB581021181C8843011C1B4BD15077
:10092000184B184A926A03218A439A62154B154A5A
:10093000D26D03218A43DA65124B124A126A0321EF
:100940008A431A620F4B0F4A526A03218A435A6242
:100950000C4B0C4A926D03218A439A650C4A0C4950
:1009600080231B02CB580B49194380231B02D15013
:10097000074A0749054BC958074B1940034BD1504B
:10098000BD4680BD0040044000000150FC3F000017
:10099000000002508605000079FAFFFF98B500AF0D
:1009A000084C094B1B68181C084900F086F8031C0A
:1009B000013B6360034B034A126804210A431A6037
:1009C000BD4698BD10E000E00000001040420F005E
:1009D00080B584B000AF78600F4B0F4A12680121D8
:1009E0000A431A600023FB6008E00B4B1A6880235F
:1009F0005B021340F9D0FB680133FB60FA687B6847
:100A00009A42F2D3044B044A126801218A431A60C5
:100A1000BD4604B080BDC04610E000E01D4B8E22F4
:100A2000920099582020814310B5995000221A62F3
:100A3000C822C046013A002AFBD101211964596439
:100A40005A645964596C134AC807FBD52321916035
:100A50008E21890050588024A0435050D86801212D
:100A60000C4A0842FAD003201067002051675067F3
:100A70005167596F01221142FBD0064B06499A6714
:100A8000064BD967064B1A60064B1A60064B1A6074
:100A900010BDC046008004405F0001000480044097
:100AA00094800440988004409C80044008B5FFF77F
:100AB00093FD08BD03000B4321D4002931D001224E
:100AC000D207030901E0090112099942FBD9430841
:100AD00001E0490052089942FBD900E04908401A58
:100AE00007D35241FAD301461046704749084018CF
:100AF000F7D29218FAD34018014610467047CB0F30
:100B000000D04942021000D54042534008B5FFF7DB
:100B1000D4FF0CBC521000D34042002A00D54942F9
:100B20001847F446002000F001F860477047FFFFC7
:040B3000006CDC0277
:0400000300000149AF
:00000001FF
