:100000000020001049010000CD010000D5010000D2
:1000100000000000000000000000000000000000E0
:10002000000000000000000000000000DD010000F2
:100030000000000000000000E5010000ED010000EC
:10004000F5010000F5010000F5010000F5010000D8
:10005000F5010000F5010000F5010000F5010000C8
:10006000F5010000F5010000F5010000F5010000B8
:10007000F5010000F5010000F5010000F5010000A8
:10008000F5010000F5010000F5010000F501000098
:10009000F5010000F5010000000000000000000074
:1000A000F5010000F5010000F5010000000000006E
:1000B000F5010000F5010000A5050000F5010000B4
:1000C0009014000000000010040000000400001064
:1000D0006001000080B588B000AFF860B9607A6058
:1000E000BB68FB61FB68BB6100237B610AE0FB69C5
:1000F0001A1DFA61BA69111DB96112681A607B692B
:1001000004337B617A697B689A42F0D3BD4608B0BC
:1001100080BDC04680B584B000AF786039607B6830
:10012000FB600023BB6007E0FB681A1DFA60002239
:100130001A60BB680433BB60BA683B689A42F3D369
:10014000BD4604B080BDC04680B584B000AF1C4B36
:10015000FB6016E0FB681A1DFA601B68BB60FB6859
:100160001A1DFA601B687B60FB681A1DFA601B6829
:100170003B60B9687A683B68081C111C1A1CFFF7C1
:10018000A9FFFA680F4B9A42E4D30FE0FB681A1DEF
:10019000FA601B687B60FB681A1DFA601B683B6095
:1001A0007A683B68101C191CFFF7B4FFFA68064B0D
:1001B0009A42EBD300F05CFD00F0A2FDFEE7C046E2
:1001C000C0000000CC000000D400000080B500AFEB
:1001D000FEE7C04680B500AFFEE7C04680B500AF81
:1001E000FEE7C04680B500AFFEE7C04680B500AF71
:1001F000FEE7C04680B500AFFEE7C046FFFFFFFF49
:10020000FFFFFFFFFFFFFFFFFFFFFFFFFFFFFFFFFE
:10021000FFFFFFFFFFFFFFFFFFFFFFFFFFFFFFFFEE
:10022000FFFFFFFFFFFFFFFFFFFFFFFFFFFFFFFFDE
:10023000FFFFFFFFFFFFFFFFFFFFFFFFFFFFFFFFCE
:10024000FFFFFFFFFFFFFFFFFFFFFFFFFFFFFFFFBE
:10025000FFFFFFFFFFFFFFFFFFFFFFFFFFFFFFFFAE
:10026000FFFFFFFFFFFFFFFFFFFFFFFFFFFFFFFF9E
:10027000FFFFFFFFFFFFFFFFFFFFFFFFFFFFFFFF8E
:10028000FFFFFFFFFFFFFFFFFFFFFFFFFFFFFFFF7E
:10029000FFFFFFFFFFFFFFFFFFFFFFFFFFFFFFFF6E
:1002A000FFFFFFFFFFFFFFFFFFFFFFFFFFFFFFFF5E
:1002B000FFFFFFFFFFFFFFFFFFFFFFFFFFFFFFFF4E
:1002C000FFFFFFFFFFFFFFFFFFFFFFFFFFFFFFFF3E
:1002D000FFFFFFFFFFFFFFFFFFFFFFFFFFFFFFFF2E
:1002E000FFFFFFFFFFFFFFFFFFFFFFFFFFFFFFFF1E
:1002F000FFFFFFFFFFFFFFFFFFFFFFFFFFFFFFFF0E
:1003000080B582B000AF021CFB1D1A70064BFA1DAF
:100310001278111C1F220A400121081C9040021C67
:100320001A60BD4602B080BD00E100E080B582B039
:1003300000AF021CFB1D1A70084AFB1D1B78191C1C
:100340001F230B400121081C9840031C191CC023CB
:100350005B00D150BD4602B080BDC04600E100E068
:10036000B0B582B000AF021C3960FB1D1A70FB1DD6
:100370001B787F2B32D93049FB1D1B781A1C0F23A9
:100380001340083B98082C4AFB1D1B781C1C0F23AC
:100390002340083B9B0806339B00D3185B68FA1D7B
:1003A0001278141C03222240D200FF24251C954001
:1003B0002A1CD2431A403B689C01FF231C40FB1DB2
:1003C0001B781D1C03232B40DB00251C9D402B1C90
:1003D0001A43831D9B00CB185A6029E0174BFA1D66
:1003E000127852B292081549F81D007840B2800880
:1003F000C03080004158F81D0078041C03202040C4
:10040000C000FF24251C8540281CC04308403968D3
:100410008C01FF210C40F91D09780D1C0321294096
:10042000C900251C8D40291C0143C0329200D150C7
:10043000BD4602B0B0BDC04600ED00E000E100E006
:1004400098B500AF3B4A3B498023CB5880214901F6
:1004500019438023D150374A98230221D150364A7C
:100460003549A423CB581B218B4301211943A423D5
:10047000D150314A3049A823CB581B218B4301214D
:100480001943A823D1502D4B2C4AD26880210A430E
:10049000DA602A4C2A4B1A6826499823CB58101C3C
:1004A000191C00F064FF031C181C9623990200F02D
:1004B0005EFF031C2360214B00225A601F4B1F4A22
:1004C000926A10210A439A621C4B1C4AD26880210E
:1004D0008A43DA60194B194AD26803210A43DA6069
:1004E000164B164AD2680C218A43DA60134B134A22
:1004F000926807210A439A60104B00221A600F4B42
:100500001B680E4B0D4A9268C0218A439A600B4BC0
:100510000A4A526801210A435A6015200221FFF756
:100520001FFF1520FFF7ECFE1520FFF7FFFEBD466D
:1005300098BDC04600800440004004400080004058
:100540000000001080B582B000AF021CFB1D1A70C5
:10055000054B5A6920231340FAD0034BFA1D127839
:100560001A60BD4602B080BD0080004080B586B0F4
:1005700000AFF860B9607A6000237B6109E0BA6877
:100580007B69D3181B78181CFFF7DCFF7B690133EC
:100590007B617A687B699A42F1D87B68181CBD46FA
:1005A00006B080BD80B500AF154A164BD258012366
:1005B000134023D0144B1B78642B08D1134A1349E2
:1005C000134BC958134B1940114BD1500CE00E4B33
:1005D0001B786C2B08D10D4A0C490D4BCB58802150
:1005E000C90019430A4BD150054A05490A4BCB585B
:1005F00001211943084BD15000F080FABD4680BD5F
:10060000000001501880000004000010000002509B
:10061000FC3F0000FFFBFFFF1C80000080B500AF27
:1006200000F026FB00F0D4FAFFF70AFF00F0DAF83A
:1006300000F00CF800F050F800F07CF800F0F8F84A
:1006400000F092F900F05AFAFEE7C04698B500AF04
:10065000084C094B1B68181C084900F088FE031C55
:10066000013B6360034B034A126804210A431A608A
:10067000BD4698BD10E000E00000001040420F00B1
:1006800080B582B000AF7860114B114A1268012129
:100690000A431A600F4B00221A600AE00C4B1A68DA
:1006A00080235B021340F9D00A4B1B685A1C094B8C
:1006B0001A60084B1A687B689A42EFD3044B044ACD
:1006C000126801218A431A60BD4602B080BDC0464F
:1006D00010E000E01000001080B500AF134B134A8B
:1006E000526801210A435A60104A10498023CB58AE
:1006F0008021090119438023D1500C4A9423012100
:10070000D1500B4B0A4A126807210A431A60084B62
:10071000074A526802210A435A60054B044A12698B
:1007200004210A431A61BD4680BDC04600800440D2
:100730000000044080B500AF154A15498023CB580E
:10074000402119438023D150124A1249B023CB587B
:1007500003218B4302211943B023D1500D4B0D4A85
:10076000D26C1B218A4302210A43DA64094B094AED
:10077000526E1B218A4301210A435A66054B054AE2
:10078000126E1B218A4301210A431A66BD4680BDB1
:10079000008004400040044080B582B000AF021CDD
:1007A000FB1D1A70054BFA1D12789A60034BDA682C
:1007B00012231340FAD0BD4602B080BD00000440B1
:1007C00080B500AF064BFF229A60054BDA68122312
:1007D0001340FAD0024B9B68DBB2181CBD4680BDAB
:1007E0000000044080B500AF0D4B0D4A926D03210F
:1007F0008A439A650B4A0B4980231B02CB58802100
:10080000C900194380231B02D150064A0549064BF3
:10081000C958064B1940044BD150BD4680BDC04657
:100820000040044000000250FC3F0000FFFBFFFFBF
:1008300080B500AF434B434AD26903218A43DA6152
:10084000A023DA05A023D90580231B02CB5804215D
:10085000194380231B02D150A023DA05A023D90518
:10086000394BCB580421181C8843011C364BD150FE
:10087000344A34498423CB580321181C8843011C73
:100880008423D150314A314980231B02CB580121A6
:10089000194380231B02D1502C4A2C492A4BCB5898
:1008A00001211943284BD150264B264A916F284AE3
:1008B0000A4091210A439A67264A264980231B024F
:1008C000CB580121181C8843011C80231B02D150E6
:1008D000204A20491C4BCB58012119431A4BD150B7
:1008E0001C4A1C491C4BCB58012119431A4BD150AF
:1008F000184A1849194BCB580121181C8843011C70
:10090000164BD150134A1349154BCB580121181CD3
:100910008843011C124BD1500E4A0E49114BCB5843
:100920000121181C8843011C0E4BD1501E200121AF
:10093000FFF716FD1E20FFF7E3FC1E20FFF7F6FC75
:10094000BD4680BD00400440FC3F00000000035055
:1009500064FBFFFF000001501080000004800000D5
:10096000088000000C80000080B500AF614A61493A
:10097000614BCB580121181C8843011C5E4BD150A0
:100980002A20FFF709FF4B20FFF706FFC220FFF7E1
:1009900003FFC220FFF700FFC220FFF7FDFEC220C9
:1009A000FFF7FAFE534A5349534BCB5801211943E1
:1009B000514BD1504F4A4F494F4BCB580121181C36
:1009C0008843011C4C4BD1502420FFF7E5FE00204A
:1009D000FFF7E2FE474A4749474BCB5801211943ED
:1009E000454BD150434A4349434BCB580121181C36
:1009F0008843011C404BD1500520FFF7CDFE6B20F2
:100A0000FFF7CAFE3B4A3B493B4BCB5801211943F8
:100A1000394BD150374A3749374BCB580121181C35
:100A20008843011C344BD1502620FFF7B5FE262009
:100A3000FFF7B2FE2F4A2F492F4BCB580121194304
:100A40002D4BD1502B4A2B492B4BCB580121181C35
:100A50008843011C284BD1502720FFF79DFE7020B2
:100A6000FFF79AFE234A2349234BCB580121194310
:100A7000214BD1501F4A1F491F4BCB580121181C35
:100A80008843011C1C4BD1503120FFF785FE0A2002
:100A9000FFF782FE174A1749174BCB58012119431C
:100AA000154BD150134A1349134BCB580121181C35
:100AB0008843011C104BD1502020FFF76DFE0F2002
:100AC000FFF76AFE0B4A0B490B4BCB580121194328
:100AD000094BD150A023DA05A023D905064BCB58EA
:100AE00004211943044BD1500F20FFF7C9FDBD4627
:100AF00080BDC04600000350FC3F000090B583B0AD
:100B000000AF304A2F49304BCB580121181C884385
:100B1000011C2D4BD1502720FFF73EFE7020FFF720
:100B20003BFE284A2749284BCB5801211943264B25
:100B3000D150244A2349244BCB580121181C884307
:100B4000011C214BD150E220FFF726FE1D4A1D4912
:100B50001D4BCB58012119431B4BD1500F20FFF7E0
:100B60008FFD184A1749184BCB580121181C884390
:100B7000011C154BD1506120FFF70EFEFB1D00221A
:100B80001A700CE0FB1D1C78FFF71AFE031C1A1CE0
:100B90000E4B1A55FB1D1A78FB1D01321A70FB1DF6
:100BA0001B78092BEED9074A0649074BCB58012180
:100BB0001943054BD1500F20FFF762FDBD4603B02E
:100BC00090BDC04600000350FC3F00000400001030
:100BD00038B5234C1F25626A616AD205214B120F7A
:100BE000294092004900D058023100F0C0FB226F2A
:100BF0000321231C0A401C4C022A26D08A4209D019
:100C0000012A05D11A6C0A40022A1ED0032A1ED0DE
:100C1000164A1DE0196C0A40022A0DD0032A16D08C
:100C2000C0209A6840001149024203D19A681540D9
:100C30000135694321600CE0C022996852001142DD
:100C400003D19A68154001356843206001E0002215
:100C50002260996F206800F08AFB206038BDC04692
:100C6000008004403414000000000010001BB70096
:100C70001D4B8E22920099582020814310B5995027
:100C800000221A62C822C046013A002AFBD1012183
:100C9000196459645A645964596C134AC807FBD5DE
:100CA000232191608E21890050588024A043505008
:100CB000D86801210C4A0842FAD0032010670020AE
:100CC000516750675167596F01221142FBD0064BA3
:100CD00006499A67064BD967064B1A60064B1A609D
:100CE000064B1A6010BDC046008004405F00010042
:100CF0000480044094800440988004409C80044018
:100D000008B50020011C021C00F004F8FFF786FC67
:100D100008BD000070B5244CA02200215200201C08
:100D200000F06EF8C02000F097F9204D0021C0229D
:100D3000286000F065F828680023282218215A430B
:100D40005943A218411801335162082BF5D1221CD6
:100D50001749002000F07AF8802280235B01201CD4
:100D60000021D20000F028F8261C124D2836291C3C
:100D7000321C012000F06AF880228023301C5B01C5
:100D800050340021D20000F017F8291C221C022048
:100D900000F05CF880228023201C0021D2005B013F
:100DA00000F00AF870BDC0461C00001018000010CA
:100DB0007414000076140000F0B5C5680124AE0775
:100DC0001AD08026B600B2420BD08026F600B2427E
:100DD00004D08026A640B2420ED102E0416A231C14
:100DE00004E0064E5F1E0124B74205D82A43016184
:100DF0000160C361C2600024201CF0BDFEFFFF0043
:100E000008B500F0EEFA08BDC26820239A43436A91
:100E100010B5041CE2605B6882699A420DD000F054
:100E200049F8E268074B134010221343626AE360FB
:100E30005368A361236993602360E268024B134007
:100E4000E36010BDEFCFFFFFBFBFFFFF70B50D1C0C
:100E5000061C101C141C00F00FF92B78722B06D006
:100E6000772B07D0612B20D10823114A04E00023FF
:100E7000012201E004230222013529782B2905D023
:100E8000622908D104210A43012102E003210A4317
:100E900002210B43F0E7E26066611A0706D5201CC9
:100EA0000021022200F03AF900E00024201C70BD6D
:100EB0000280000038B5436A041C0569026899681D
:100EC000C36813481840E06082201840022802D00E
:100ED000012040421AE080204002184016D0914282
:100EE00000D2111CA94209D1636AE2689D60094BD6
:100EF000002013402560A060E36007E0491B281C28
:100F0000221C00F009F80028EED0E1E738BDC04609
:100F1000FFFFF7FFFFFFFEFFF7B5D56801900E1C3E
:100F2000141C5769EA0205D51023381C1D4300F034
:100F300071FAA061114B1D4208D0381CA16900F064
:100F400072FA002813DB0E4B1D40E560321C381C82
:100F50000199FFF70BFB801B431E98414042430061
:100F60005B08F61AA3699E19A661002805D0E268FD
:100F7000802313430120E3604042FEBD10000200C5
:100F8000EFFFFDFFF8B52F4FC51C3C68AD080028EA
:100F90000FD0002606E0216880235B05994215D01A
:100FA000261CA468002CF6D10C3000F08DF9421CF0
:100FB0003CD1002045E01668802149058E4209D1C8
:100FC000516892685B1803336360A260A26863682B
:100FD000002AF0D1AB4206DBE91C994203DB8023F7
:100FE0009B05236020E0291C0A318B4210D9802107
:100FF0008905201C21600C30A90041186560A160A2
:101000005B1B80246405033B0C604B608A6018E026
:10101000002AC5D19B00C01A00F056F90130C8D093
:1010200080239B0523606560201C09E080239B05CD
:10103000036045608460002E01D1386000E0B0603C
:101040000C30F8BD5C010010002803D080230C3860
:101050005B0503607047000010B5FFF793FF041EA7
:1010600005D104491722FFF781FA00F0CFF9201CBF
:1010700010BDC04678140000F0B5436AC5688BB057
:10108000041C476906690193AB0726D02B0716D4C9
:1010900000F02AF8381C00F0BAF92B0502D5301CF4
:1010A000FFF7D2FF0F4BAD0DAD059D4207D102A852
:1010B000216A202200F0BAF902A800F0D1F800213C
:1010C0001822606AFFF79CFE201C00212822FFF7EF
:1010D00097FE019B0020636201E0012040420BB0BB
:1010E000F0BDC046000080AD38B5002803D000F048
:1010F0000BF9051C0EE0041C051C0748201800F025
:1011000003F9002801D001256D42A02328345B009B
:101110009C42F2D1281C38BD1C000010F7B53B4B97
:101120000D1CC168041C161C47690091194269D046
:10113000381C00F072F90190002863D1012E04D010
:10114000022E07D0002E5DD123E0201C00F062F8B3
:101150002D181EE0381C00F05DF9E168002804DA63
:1011600080231943E16001264DE0626A2668936896
:101170009E4200D9331CA6699B1926699B1B8E06CB
:1011800003D55268934200DA131C834200DA031C31
:10119000ED18002D36DB009E636AB60404D5226884
:1011A0009968914200D29A60A1698D420DDB206856
:1011B0009A68824200D2021C20695618361AB5423B
:1011C00003DCDF68CE19B54207DB009E0021202238
:1011D000A160616032435D6010E0009E6D1AB60749
:1011E00001D5EF1BA760009EF60702D5821AAA1848
:1011F0006260009A4519202325609A43044B1A40E7
:10120000E26001E0022601960198FEBD0300100095
:10121000BFCFF7FFC368990705D1104B21220120EA
:101220001A60404218E0202219030BD5134202D065
:10123000436A586804E0036881695A180369D01A40
:10124000013809E0134202D0436A586804E0036899
:1012500081695A180369D01A7047C04614000010FB
:1012600010B5041C00F006F8011C201C00F0D8F892
:1012700010BD000010B5411C820706D00130431E8E
:101280001B78002BF8D1401A18E003680C4A9C1810
:101290000C4A9C43144201D10430F6E7DCB2421CF4
:1012A000002C0AD0FF242402821C234205D0FF24F4
:1012B0002404C21C234200D0021D501A10BDC04697
:1012C000FFFEFEFE8080808070B50C4C2368002BF2
:1012D00001D10B4B2360C61C256803239E43AE1926
:1012E000301C00F035F8002802D12660281C04E0EC
:1012F000044B0C2201201A60404270BD60010010B6
:101300006401001014000010C36870B5041C0320B1
:1013100018401AD09A0605D5636A201C5D68FFF74D
:1013200073FD04E02368A2699D182369ED1AE26841
:10133000064B201C1340E360FFF7BCFD291C061C74
:101340000022201CFFF7EAFE301C70BDFFCFFFFF1C
:10135000044B002B04D0002298425241101C00E0A4
:10136000181C70470000000003000B4321D4002923
:1013700031D00122D207030901E009011209994283
:10138000FBD9430801E0490052089942FBD900E02B
:101390004908401A07D35241FAD301461046704714
:1013A00049084018F7D29218FAD34018014610465F
:1013B0007047CB0F00D04942021000D54042534045
:1013C00008B5FFF7D4FF0CBC521000D34042002AEE
:1013D00000D549421847F446002000F001F8604764
:1013E00070478446043A09D3830707D109060B0ADC
:1013F00019430B0C1943043A02C0FCD2043203D047
:1014000001700130013AFBD160467047FEE70120D0
:1014100040427047012040427047012040427047DF
:101420000120404270470120404270470120404265
:1014300070470000801A060020A1070000350C004C
:10144000E0C81000C05C1500006A180040771B005F
:1014500080841E00C0912100009F240040AC270022
:10146000E032290020402C00604D2F0000D43000D5
:1014700040E13300720077002A2A2A205F43737903
:10148000735F616C6C6F63206661696C65640A00F0
:04149000006CDC020E
:0400000300000149AF
:00000001FF
