:100000000020001049010000CD010000D5010000D2
:1000100000000000000000000000000000000000E0
:10002000000000000000000000000000DD010000F2
:100030000000000000000000E5010000ED010000EC
:10004000F5010000F5010000F5010000F5010000D8
:10005000F5010000F5010000F5010000F5010000C8
:10006000F5010000F5010000F5010000F5010000B8
:10007000F5010000F5010000F5010000F5010000A8
:10008000F5010000F5010000E1030000F5010000AA
:10009000F5010000F5010000000000000000000074
:1000A000F5010000F5010000F5010000000000006E
:1000B000F5010000F5010000F5010000F501000068
:1000C0007007000000000010040000000400001091
:1000D0000000000080B588B000AFF860B9607A60B9
:1000E000BB68FB61FB68BB6100237B610AE0FB69C5
:1000F0001A1DFA61BA69111DB96112681A607B692B
:1001000004337B617A697B689A42F0D3BD4608B0BC
:1001100080BDC04680B584B000AF786039607B6830
:10012000FB600023BB6007E0FB681A1DFA60002239
:100130001A60BB680433BB60BA683B689A42F3D369
:10014000BD4604B080BDC04680B584B000AF1C4B36
:10015000FB6016E0FB681A1DFA601B68BB60FB6859
:100160001A1DFA601B687B60FB681A1DFA601B6829
:100170003B60B9687A683B68081C111C1A1CFFF7C1
:10018000A9FFFA680F4B9A42E4D30FE0FB681A1DEF
:10019000FA601B687B60FB681A1DFA601B683B6095
:1001A0007A683B68101C191CFFF7B4FFFA68064B0D
:1001B0009A42EBD300F032FA00F078FAFEE7C0463C
:1001C000C0000000CC000000D400000080B500AFEB
:1001D000FEE7C04680B500AFFEE7C04680B500AF81
:1001E000FEE7C04680B500AFFEE7C04680B500AF71
:1001F000FEE7C04680B500AFFEE7C046FFFFFFFF49
:10020000FFFFFFFFFFFFFFFFFFFFFFFFFFFFFFFFFE
:10021000FFFFFFFFFFFFFFFFFFFFFFFFFFFFFFFFEE
:10022000FFFFFFFFFFFFFFFFFFFFFFFFFFFFFFFFDE
:10023000FFFFFFFFFFFFFFFFFFFFFFFFFFFFFFFFCE
:10024000FFFFFFFFFFFFFFFFFFFFFFFFFFFFFFFFBE
:10025000FFFFFFFFFFFFFFFFFFFFFFFFFFFFFFFFAE
:10026000FFFFFFFFFFFFFFFFFFFFFFFFFFFFFFFF9E
:10027000FFFFFFFFFFFFFFFFFFFFFFFFFFFFFFFF8E
:10028000FFFFFFFFFFFFFFFFFFFFFFFFFFFFFFFF7E
:10029000FFFFFFFFFFFFFFFFFFFFFFFFFFFFFFFF6E
:1002A000FFFFFFFFFFFFFFFFFFFFFFFFFFFFFFFF5E
:1002B000FFFFFFFFFFFFFFFFFFFFFFFFFFFFFFFF4E
:1002C000FFFFFFFFFFFFFFFFFFFFFFFFFFFFFFFF3E
:1002D000FFFFFFFFFFFFFFFFFFFFFFFFFFFFFFFF2E
:1002E000FFFFFFFFFFFFFFFFFFFFFFFFFFFFFFFF1E
:1002F000FFFFFFFFFFFFFFFFFFFFFFFFFFFFFFFF0E
:10030000B0B582B000AF021C3960FB1D1A70FB1D36
:100310001B787F2B32D93049FB1D1B781A1C0F2309
:100320001340083B98082C4AFB1D1B781C1C0F230C
:100330002340083B9B0806339B00D3185B68FA1DDB
:100340001278141C03222240D200FF24251C954061
:100350002A1CD2431A403B689C01FF231C40FB1D12
:100360001B781D1C03232B40DB00251C9D402B1CF0
:100370001A43831D9B00CB185A6029E0174BFA1DC6
:10038000127852B292081549F81D007840B28008E0
:10039000C03080004158F81D0078041C0320204024
:1003A000C000FF24251C8540281CC0430840396834
:1003B0008C01FF210C40F91D09780D1C03212940F7
:1003C000C900251C8D40291C0143C0329200D15028
:1003D000BD4602B0B0BDC04600ED00E000E100E067
:1003E00080B500AF144B1A68012313400DD0134A97
:1003F0001249134BCB5802211943114BD1500E4BCC
:100400000D4A126801210A431A600B4B1A68022335
:1004100013400FD0094A0949094BCB580221181C37
:100420008843011C064BD150034B034A126802213A
:100430000A431A60BD4680BD0040014000000250E2
:10044000FC3F000080B500AF00F0E8F800F096F83F
:1004500000F070F800F002F8FEE7C04690B583B0F7
:1004600000AF304A2F498023CB588021890019439F
:100470008023D1502C4B2C4A126F03218A431A67D8
:10048000294B0122DA60294B1A68274BDB680133BC
:10049000101C191C00F011F9031C7B60224C7B68B6
:1004A000181C322100F009F9031C013BA3611E4C0A
:1004B0007B68181C372100F000F9031C013BE36145
:1004C000194B194A526902210A435A61164B164ABE
:1004D000526F01210A435A67134B134A526909218B
:1004E0000A435A6112200021FFF70AFF104B104AFD
:1004F00012688021C9020A431A600D4A0C49C023C0
:100500005B00CB588021C9021943C0235B00D15046
:10051000054B054A526801210A435A60BD4603B0A3
:1005200090BDC04600800440004001400000001023
:1005300000E100E080B500AF0D4B0D4A926A032147
:100540008A439A620B4A0B4980231B02CB58022133
:10055000194380231B02D150064A0649064BCB584B
:100560000221181C8843011C034BD150BD4680BD9D
:100570000040044000000250FC3F000038B5234C0E
:100580001F25626A616AD205214B120F2940920031
:100590004900D058023100F090F8226F0321231C4B
:1005A0000A401C4C022A26D08A4209D0012A05D1D1
:1005B0001A6C0A40022A1ED0032A1ED0164A1DE0D9
:1005C000196C0A40022A0DD0032A16D0C0209A685E
:1005D00040001149024203D19A6815400135694330
:1005E00021600CE0C02299685200114203D19A6840
:1005F000154001356843206001E000222260996FB8
:10060000206800F05AF8206038BDC04600800440E1
:100610003007000000000010001BB7001D4B8E22A9
:10062000920099582020814310B5995000221A62F7
:10063000C822C046013A002AFBD10121196459643D
:100640005A645964596C134AC807FBD52321916039
:100650008E21890050588024A0435050D868012131
:100660000C4A0842FAD003201067002051675067F7
:100670005167596F01221142FBD0064B06499A6718
:10068000064BD967064B1A60064B1A60064B1A6078
:1006900010BDC046008004405F000100048004409B
:1006A00094800440988004409C80044008B5FFF783
:1006B000C9FE08BD03000B4321D4002931D001221B
:1006C000D207030901E0090112099942FBD9430845
:1006D00001E0490052089942FBD900E04908401A5C
:1006E00007D35241FAD301461046704749084018D3
:1006F000F7D29218FAD34018014610467047CB0F34
:1007000000D04942021000D54042534008B5FFF7DF
:10071000D4FF0CBC521000D34042002A00D54942FD
:100720001847F446002000F001F8604770470000C9
:10073000801A060020A1070000350C00E0C8100058
:10074000C05C1500006A180040771B0080841E0002
:10075000C0912100009F240040AC2700E032290016
:1007600020402C00604D2F0000D4300040E13300C9
:04077000006CDC023B
:0400000300000149AF
:00000001FF
