:100000000020001049010000CD010000D5010000D2
:1000100000000000000000000000000000000000E0
:10002000000000000000000000000000DD010000F2
:100030000000000000000000E5010000ED010000EC
:10004000F5010000F5010000F5010000F5010000D8
:10005000F5010000F5010000F5010000F5010000C8
:10006000F5010000F5010000F5010000F5010000B8
:10007000F5010000F5010000F5010000F5010000A8
:10008000F5010000F5010000F5010000F501000098
:10009000F5010000F5010000000000000000000074
:1000A000F5010000F5010000F5010000000000006E
:1000B000F5010000F5010000F5010000F501000068
:1000C0006C08000000000010040000000400001094
:1000D0000000000080B588B000AFF860B9607A60B9
:1000E000BB68FB61FB68BB6100237B610AE0FB69C5
:1000F0001A1DFA61BA69111DB96112681A607B692B
:1001000004337B617A697B689A42F0D3BD4608B0BC
:1001100080BDC04680B584B000AF786039607B6830
:10012000FB600023BB6007E0FB681A1DFA60002239
:100130001A60BB680433BB60BA683B689A42F3D369
:10014000BD4604B080BDC04680B584B000AF1C4B36
:10015000FB6016E0FB681A1DFA601B68BB60FB6859
:100160001A1DFA601B687B60FB681A1DFA601B6829
:100170003B60B9687A683B68081C111C1A1CFFF7C1
:10018000A9FFFA680F4B9A42E4D30FE0FB681A1DEF
:10019000FA601B687B60FB681A1DFA601B683B6095
:1001A0007A683B68101C191CFFF7B4FFFA68064B0D
:1001B0009A42EBD300F0B0FA00F0F6FAFEE7C04640
:1001C000C0000000CC000000D400000080B500AFEB
:1001D000FEE7C04680B500AFFEE7C04680B500AF81
:1001E000FEE7C04680B500AFFEE7C04680B500AF71
:1001F000FEE7C04680B500AFFEE7C046FFFFFFFF49
:10020000FFFFFFFFFFFFFFFFFFFFFFFFFFFFFFFFFE
:10021000FFFFFFFFFFFFFFFFFFFFFFFFFFFFFFFFEE
:10022000FFFFFFFFFFFFFFFFFFFFFFFFFFFFFFFFDE
:10023000FFFFFFFFFFFFFFFFFFFFFFFFFFFFFFFFCE
:10024000FFFFFFFFFFFFFFFFFFFFFFFFFFFFFFFFBE
:10025000FFFFFFFFFFFFFFFFFFFFFFFFFFFFFFFFAE
:10026000FFFFFFFFFFFFFFFFFFFFFFFFFFFFFFFF9E
:10027000FFFFFFFFFFFFFFFFFFFFFFFFFFFFFFFF8E
:10028000FFFFFFFFFFFFFFFFFFFFFFFFFFFFFFFF7E
:10029000FFFFFFFFFFFFFFFFFFFFFFFFFFFFFFFF6E
:1002A000FFFFFFFFFFFFFFFFFFFFFFFFFFFFFFFF5E
:1002B000FFFFFFFFFFFFFFFFFFFFFFFFFFFFFFFF4E
:1002C000FFFFFFFFFFFFFFFFFFFFFFFFFFFFFFFF3E
:1002D000FFFFFFFFFFFFFFFFFFFFFFFFFFFFFFFF2E
:1002E000FFFFFFFFFFFFFFFFFFFFFFFFFFFFFFFF1E
:1002F000FFFFFFFFFFFFFFFFFFFFFFFFFFFFFFFF0E
:1003000080B500AF00F008FA00F0B6F900F074F91B
:1003100000F014F900F07EF8394A3A4BD2588023A5
:100320005B0013400BD1384A3749364BCB5802217A
:100330005940344BD150354B181C00F077F9304AF6
:10034000304BD2588023DB0013400BD12E4A2E496C
:100350002C4BCB58802159402A4BD1502B4B181C89
:1003600000F064F9284A274BD258102313400BD1D0
:10037000234A2349234BCB5810215940214BD150BC
:10038000224B181C00F052F9A023DA051D4BD2585D
:10039000802313400CD11C4A1B491A4BCB58802197
:1003A000C9005940174BD150184B181C00F03EF9AA
:1003B000174A144BD258102313400CD1124A124939
:1003C000104BCB588021490059400E4BD1500F4B58
:1003D000181C00F02BF90C4A0A4BD258202313406A
:1003E0000CD1094A0849074BCB5804215940054B09
:1003F000D150064B181C00F019F98DE78CE7C04668
:1004000000000150FC3F00000000025090D00300AB
:100410000000035080B500AF424B424A126D1B21D1
:100420008A4310210A431A65A023DA05A023D905BF
:1004300080231B02CB588021181C8843011C802379
:100440001B02D150A023DA05A023D905364BCB5887
:1004500080211943344BD150324B324AD26E1B218A
:100460008A4310210A43DA662E4B2E4A52691B2119
:100470008A4310210A435A612C4A2C4980231B02CB
:10048000C9582B4B194080231B02D150274A2749BA
:10049000254BCB58A021C9001943234BD150214BE8
:1004A000204A126C1B218A4310210A431A641D4BF7
:1004B0001C4A526C1B218A4310210A435A641D4A6C
:1004C0001C4980231B02CB583021181C8843011C77
:1004D00080231B02D150174A1649134BCB583021A9
:1004E0001943114BD1500F4B0E4AD26B1B218A433B
:1004F00010210A43DA63104A0F4980231B02CB58AC
:100500001021181C8843011C80231B02D1500A4A69
:100510000949054BCB5810211943034BD150BD4617
:1005200080BDC04600400440FC3F00000000015078
:10053000FFFAFFFF000002500000035080B500AF3B
:10054000274A27499423CB580321181C8843011CB0
:100550009423D150234A234980231B02CB581021D6
:10056000194380231B02D1501E4A1E491E4BCB58F3
:100570001021181C8843011C1B4BD150184B184AE2
:10058000926A03218A439A62154B154AD26D032160
:100590008A43DA65124B124A126A03218A431A62AD
:1005A0000F4B0F4A526A03218A435A620C4B0C4A82
:1005B000926D03218A439A650C4A0C4980231B02E1
:1005C000CB580B49194380231B02D150074A0749D6
:1005D000054BC958074B1940034BD150BD4680BD50
:1005E0000040044000000150FC3F000000000250A9
:1005F0008605000079FAFFFF98B500AF084C094B5B
:100600001B68181C084900F0D6F8031C013B636006
:10061000034B034A126804210A431A60BD4698BD81
:1006200010E000E00000001040420F0080B584B0F0
:1006300000AF78600F4B0F4A126801210A431A601D
:100640000023FB6008E00B4B1A6880235B02134019
:10065000F9D0FB680133FB60FA687B689A42F2D3F9
:10066000044B044A126801218A431A60BD4604B053
:1006700080BDC04610E000E038B5234C1F25626AFB
:10068000616AD205214B120F294092004900D058CF
:10069000023100F090F8226F0321231C0A401C4C09
:1006A000022A26D08A4209D0012A05D11A6C0A40B2
:1006B000022A1ED0032A1ED0164A1DE0196C0A40D9
:1006C000022A0DD0032A16D0C0209A684000114992
:1006D000024203D19A6815400135694321600CE05C
:1006E000C02299685200114203D19A681540013521
:1006F0006843206001E000222260996F206800F0CA
:100700005AF8206038BDC046008004402C08000024
:1007100000000010001BB7001D4B8E22920099585C
:100720002020814310B5995000221A62C822C04689
:10073000013A002AFBD10121196459645A645964B1
:10074000596C134AC807FBD5232191608E2189007B
:1007500050588024A0435050D86801210C4A0842C8
:10076000FAD0032010670020516750675167596F16
:1007700001221142FBD0064B06499A67064BD96706
:10078000064B1A60064B1A60064B1A6010BDC04635
:10079000008004405F000100048004409480044015
:1007A000988004409C80044008B5FFF7A9FD08BD6F
:1007B00003000B4321D4002931D00122D2070309C1
:1007C00001E0090112099942FBD9430801E04900FF
:1007D00052089942FBD900E04908401A07D3524118
:1007E000FAD301461046704749084018F7D29218CC
:1007F000FAD34018014610467047CB0F00D049424B
:10080000021000D54042534008B5FFF7D4FF0CBC9E
:10081000521000D34042002A00D549421847F446FE
:10082000002000F001F8604770470000801A0600C1
:1008300020A1070000350C00E0C81000C05C1500C6
:10084000006A180040771B0080841E00C0912100C0
:10085000009F240040AC2700E032290020402C00FB
:0C086000604D2F0000D4300040E1330058
:04086C00006CDC023E
:0400000300000149AF
:00000001FF
