:100000000020001049010000CD010000D5010000D2
:1000100000000000000000000000000000000000E0
:10002000000000000000000000000000DD010000F2
:100030000000000000000000E5010000ED010000EC
:10004000F5010000F5010000F5010000F5010000D8
:10005000F5010000F5010000F5010000F5010000C8
:10006000F5010000F5010000F5010000F5010000B8
:10007000F5010000F5010000F5010000F5010000A8
:10008000F5010000F5010000F5010000F501000098
:10009000F5010000F5010000000000000000000074
:1000A000F5010000F5010000F5010000000000006E
:1000B000F5010000F5010000F5010000F501000068
:1000C00014060000000000100400000004000010EE
:1000D0000000000080B588B000AFF860B9607A60B9
:1000E000BB68FB61FB68BB6100237B610AE0FB69C5
:1000F0001A1DFA61BA69111DB96112681A607B692B
:1001000004337B617A697B689A42F0D3BD4608B0BC
:1001100080BDC04680B584B000AF786039607B6830
:10012000FB600023BB6007E0FB681A1DFA60002239
:100130001A60BB680433BB60BA683B689A42F3D369
:10014000BD4604B080BDC04680B584B000AF1C4B36
:10015000FB6016E0FB681A1DFA601B68BB60FB6859
:100160001A1DFA601B687B60FB681A1DFA601B6829
:100170003B60B9687A683B68081C111C1A1CFFF7C1
:10018000A9FFFA680F4B9A42E4D30FE0FB681A1DEF
:10019000FA601B687B60FB681A1DFA601B683B6095
:1001A0007A683B68101C191CFFF7B4FFFA68064B0D
:1001B0009A42EBD300F084F900F0CAF9FEE7C0469A
:1001C000C0000000CC000000D400000080B500AFEB
:1001D000FEE7C04680B500AFFEE7C04680B500AF81
:1001E000FEE7C04680B500AFFEE7C04680B500AF71
:1001F000FEE7C04680B500AFFEE7C046FFFFFFFF49
:10020000FFFFFFFFFFFFFFFFFFFFFFFFFFFFFFFFFE
:10021000FFFFFFFFFFFFFFFFFFFFFFFFFFFFFFFFEE
:10022000FFFFFFFFFFFFFFFFFFFFFFFFFFFFFFFFDE
:10023000FFFFFFFFFFFFFFFFFFFFFFFFFFFFFFFFCE
:10024000FFFFFFFFFFFFFFFFFFFFFFFFFFFFFFFFBE
:10025000FFFFFFFFFFFFFFFFFFFFFFFFFFFFFFFFAE
:10026000FFFFFFFFFFFFFFFFFFFFFFFFFFFFFFFF9E
:10027000FFFFFFFFFFFFFFFFFFFFFFFFFFFFFFFF8E
:10028000FFFFFFFFFFFFFFFFFFFFFFFFFFFFFFFF7E
:10029000FFFFFFFFFFFFFFFFFFFFFFFFFFFFFFFF6E
:1002A000FFFFFFFFFFFFFFFFFFFFFFFFFFFFFFFF5E
:1002B000FFFFFFFFFFFFFFFFFFFFFFFFFFFFFFFF4E
:1002C000FFFFFFFFFFFFFFFFFFFFFFFFFFFFFFFF3E
:1002D000FFFFFFFFFFFFFFFFFFFFFFFFFFFFFFFF2E
:1002E000FFFFFFFFFFFFFFFFFFFFFFFFFFFFFFFF1E
:1002F000FFFFFFFFFFFFFFFFFFFFFFFFFFFFFFFF0E
:1003000080B500AF00F0DCF800F08AF800F016F8D5
:1003100000F046F8064B181C00F05CF8054A054949
:10032000054BCB58C421C9005940034BD150F1E7CC
:1003300020A1070000000250FC3F000080B500AF84
:10034000134B134A926D03218A439A65104B104A4E
:10035000526D03218A435A650D4B0D4A526C03219D
:100360008A435A640B4A0B4980231B02CB58C42191
:10037000C900194380231B02D150064A0549064B88
:10038000C958064B1940044BD150BD4680BDC046EC
:100390000040044000000250FC3F0000DFF9FFFF76
:1003A00098B500AF084C094B1B68181C084900F0B1
:1003B000D6F8031C013B6360034B034A1268042117
:1003C0000A431A60BD4698BD10E000E0000000102E
:1003D00040420F0080B584B000AF78600F4B0F4AE9
:1003E000126801210A431A600023FB6008E00B4BEE
:1003F0001A6880235B021340F9D0FB680133FB606D
:10040000FA687B689A42F2D3044B044A12680121CD
:100410008A431A60BD4604B080BDC04610E000E0CB
:1004200038B5234C1F25626A616AD205214B120F31
:10043000294092004900D058023100F090F8226F14
:100440000321231C0A401C4C022A26D08A4209D0D0
:10045000012A05D11A6C0A40022A1ED0032A1ED096
:10046000164A1DE0196C0A40022A0DD0032A16D044
:10047000C0209A6840001149024203D19A68154091
:100480000135694321600CE0C02299685200114295
:1004900003D19A68154001356843206001E00022CD
:1004A0002260996F206800F05AF8206038BDC0467D
:1004B00000800440D405000000000010001BB700BD
:1004C0001D4B8E22920099582020814310B59950DF
:1004D00000221A62C822C046013A002AFBD101213B
:1004E000196459645A645964596C134AC807FBD596
:1004F000232191608E21890050588024A0435050C0
:10050000D86801210C4A0842FAD003201067002065
:10051000516750675167596F01221142FBD0064B5A
:1005200006499A67064BD967064B1A60064B1A6054
:10053000064B1A6010BDC046008004405F000100F9
:100540000480044094800440988004409C800440CF
:1005500008B5FFF7D5FE08BD03000B4321D40029E1
:1005600031D00122D207030901E0090112099942A1
:10057000FBD9430801E0490052089942FBD900E049
:100580004908401A07D35241FAD301461046704732
:1005900049084018F7D29218FAD34018014610467D
:1005A0007047CB0F00D04942021000D54042534063
:1005B00008B5FFF7D4FF0CBC521000D34042002A0C
:1005C00000D549421847F446002000F001F8604782
:1005D00070470000801A060020A1070000350C00BB
:1005E000E0C81000C05C1500006A180040771B00CE
:1005F00080841E00C0912100009F240040AC270091
:10060000E032290020402C00604D2F0000D4300043
:0406100040E1330092
:04061400006CDC0298
:0400000300000149AF
:00000001FF
