:100000000020001049010000CD010000D5010000D2
:1000100000000000000000000000000000000000E0
:10002000000000000000000000000000DD010000F2
:100030000000000000000000E5010000ED010000EC
:10004000F5010000F5010000F5010000F5010000D8
:10005000F5010000F5010000F5010000F5010000C8
:10006000F5010000F5010000F5010000F5010000B8
:10007000F5010000F5010000F5010000F5010000A8
:10008000F5010000F5010000F5010000F501000098
:10009000F5010000F5010000000000000000000074
:1000A000F5010000F5010000F5010000000000006E
:1000B000F5010000F5010000E1080000F501000075
:1000C00010140000000000100400000004000010E4
:1000D0005C01000080B588B000AFF860B9607A605C
:1000E000BB68FB61FB68BB6100237B610AE0FB69C5
:1000F0001A1DFA61BA69111DB96112681A607B692B
:1001000004337B617A697B689A42F0D3BD4608B0BC
:1001100080BDC04680B584B000AF786039607B6830
:10012000FB600023BB6007E0FB681A1DFA60002239
:100130001A60BB680433BB60BA683B689A42F3D369
:10014000BD4604B080BDC04680B584B000AF1C4B36
:10015000FB6016E0FB681A1DFA601B68BB60FB6859
:100160001A1DFA601B687B60FB681A1DFA601B6829
:100170003B60B9687A683B68081C111C1A1CFFF7C1
:10018000A9FFFA680F4B9A42E4D30FE0FB681A1DEF
:10019000FA601B687B60FB681A1DFA601B683B6095
:1001A0007A683B68101C191CFFF7B4FFFA68064B0D
:1001B0009A42EBD300F01CFD00F062FDFEE7C04662
:1001C000C0000000CC000000D400000080B500AFEB
:1001D000FEE7C04680B500AFFEE7C04680B500AF81
:1001E000FEE7C04680B500AFFEE7C04680B500AF71
:1001F000FEE7C04680B500AFFEE7C046FFFFFFFF49
:10020000FFFFFFFFFFFFFFFFFFFFFFFFFFFFFFFFFE
:10021000FFFFFFFFFFFFFFFFFFFFFFFFFFFFFFFFEE
:10022000FFFFFFFFFFFFFFFFFFFFFFFFFFFFFFFFDE
:10023000FFFFFFFFFFFFFFFFFFFFFFFFFFFFFFFFCE
:10024000FFFFFFFFFFFFFFFFFFFFFFFFFFFFFFFFBE
:10025000FFFFFFFFFFFFFFFFFFFFFFFFFFFFFFFFAE
:10026000FFFFFFFFFFFFFFFFFFFFFFFFFFFFFFFF9E
:10027000FFFFFFFFFFFFFFFFFFFFFFFFFFFFFFFF8E
:10028000FFFFFFFFFFFFFFFFFFFFFFFFFFFFFFFF7E
:10029000FFFFFFFFFFFFFFFFFFFFFFFFFFFFFFFF6E
:1002A000FFFFFFFFFFFFFFFFFFFFFFFFFFFFFFFF5E
:1002B000FFFFFFFFFFFFFFFFFFFFFFFFFFFFFFFF4E
:1002C000FFFFFFFFFFFFFFFFFFFFFFFFFFFFFFFF3E
:1002D000FFFFFFFFFFFFFFFFFFFFFFFFFFFFFFFF2E
:1002E000FFFFFFFFFFFFFFFFFFFFFFFFFFFFFFFF1E
:1002F000FFFFFFFFFFFFFFFFFFFFFFFFFFFFFFFF0E
:1003000080B582B000AF021CFB1D1A70064BFA1DAF
:100310001278111C1F220A400121081C9040021C67
:100320001A60BD4602B080BD00E100E080B582B039
:1003300000AF021CFB1D1A70084AFB1D1B78191C1C
:100340001F230B400121081C9840031C191CC023CB
:100350005B00D150BD4602B080BDC04600E100E068
:10036000B0B582B000AF021C3960FB1D1A70FB1DD6
:100370001B787F2B32D93049FB1D1B781A1C0F23A9
:100380001340083B98082C4AFB1D1B781C1C0F23AC
:100390002340083B9B0806339B00D3185B68FA1D7B
:1003A0001278141C03222240D200FF24251C954001
:1003B0002A1CD2431A403B689C01FF231C40FB1DB2
:1003C0001B781D1C03232B40DB00251C9D402B1C90
:1003D0001A43831D9B00CB185A6029E0174BFA1D66
:1003E000127852B292081549F81D007840B2800880
:1003F000C03080004158F81D0078041C03202040C4
:10040000C000FF24251C8540281CC04308403968D3
:100410008C01FF210C40F91D09780D1C0321294096
:10042000C900251C8D40291C0143C0329200D150C7
:10043000BD4602B0B0BDC04600ED00E000E100E006
:1004400098B500AF3B4A3B498023CB5880214901F6
:1004500019438023D150374A98230221D150364A7C
:100460003549A423CB581B218B4301211943A423D5
:10047000D150314A3049A823CB581B218B4301214D
:100480001943A823D1502D4B2C4AD26880210A430E
:10049000DA602A4C2A4B1A6826499823CB58101C3C
:1004A000191C00F024FF031C181C9623990200F06D
:1004B0001EFF031C2360214B00225A601F4B1F4A62
:1004C000926A10210A439A621C4B1C4AD26880210E
:1004D0008A43DA60194B194AD26803210A43DA6069
:1004E000164B164AD2680C218A43DA60134B134A22
:1004F000926807210A439A60104B00221A600F4B42
:100500001B680E4B0D4A9268C0218A439A600B4BC0
:100510000A4A526801210A435A6015200221FFF756
:100520001FFF1520FFF7ECFE1520FFF7FFFEBD466D
:1005300098BDC04600800440004004400080004058
:100540000000001080B582B000AF021CFB1D1A70C5
:10055000054B5A6920231340FAD0034BFA1D127839
:100560001A60BD4602B080BD0080004080B586B0F4
:1005700000AFF860B9607A6000237B6109E0BA6877
:100580007B69D3181B78181CFFF7DCFF7B690133EC
:100590007B617A687B699A42F1D87B68181CBD46FA
:1005A00006B080BD80B500AF974A9749974BCB58AE
:1005B0000121181C8843011C944BD1502A2000F0C3
:1005C0005BFA4B2000F058FAC22000F055FAC22026
:1005D00000F052FAC22000F04FFAC22000F04CFAAC
:1005E000894A8949894BCB5801211943874BD150FE
:1005F000854A8549854BCB580121181C8843011C2D
:10060000824BD150302000F037FA4B2000F034FA02
:10061000C22000F031FAC22000F02EFAC22000F011
:100620002BFAC22000F028FA774A7749774BCB584B
:1006300001211943754BD150734A7349734BCB5801
:100640000121181C8843011C704BD150242000F05C
:1006500013FA002000F010FA6B4A6B496B4BCB5831
:1006600001211943694BD150674A6749674BCB5801
:100670000121181C8843011C644BD150212000F03B
:10068000FBF9012000F0F8F95F4A5F495F4BCB5856
:10069000012119435D4BD1505B4A5B495B4BCB5801
:1006A0000121181C8843011C584BD150222000F016
:1006B000E3F9012000F0E0F9534A5349534BCB587A
:1006C00001211943514BD1504F4A4F494F4BCB5801
:1006D0000121181C8843011C4C4BD150232000F0F1
:1006E000CBF9032000F0C8F9474A4749474BCB589C
:1006F00001211943454BD150434A4349434BCB5801
:100700000121181C8843011C404BD150052000F0EA
:10071000B3F96B2000F0B0F93B4A3B493B4BCB5857
:1007200001211943394BD150374A3749374BCB5800
:100730000121181C8843011C344BD150262000F0A5
:100740009BF9262000F098F92F4A2F492F4BCB58C0
:10075000012119432D4BD1502B4A2B492B4BCB5800
:100760000121181C8843011C284BD150272000F080
:1007700083F9702000F080F9234A2349234BCB589A
:1007800001211943214BD1501F4A1F491F4BCB5800
:100790000121181C8843011C1C4BD150312000F052
:1007A0006BF90A2000F068F9174A1749174BCB5824
:1007B00001211943154BD150134A1349134BCB5800
:1007C0000121181C8843011C104BD150202000F03F
:1007D00053F90F2000F050F90B4A0B490B4BCB5843
:1007E00001211943094BD150A023DA05A023D905D3
:1007F000064BCB5804211943044BD1500A2000F07A
:1008000081F9BD4680BDC04600000350FC3F00009A
:1008100090B583B000AF2F4A2E492F4BCB58012102
:10082000181C8843011C2C4BD150272000F024F9C0
:10083000702000F021F9274A2649274BCB58012187
:100840001943254BD150234A2249234BCB58012130
:10085000181C8843011C204BD150612000F00CF97A
:10086000FB1D00221A700DE0FB1D1C78FF2000F01C
:1008700017F9031C1A1C194B1A55FB1D1A78FB1D7E
:1008800001321A70FB1D1B78092BEDD9114A114951
:10089000114BCB58012119430F4BD1500D4A0D4933
:1008A0000D4BCB580121181C8843011C0A4BD15019
:1008B000E22000F0E1F8074A0649074BCB58012136
:1008C0001943054BD1500A2000F01CF9BD4603B076
:1008D00090BDC04600000350FC3F00000400001023
:1008E00080B500AF084A094BD2580123134009D004
:1008F000FFF78EFF044A0449054BCB5801211943E9
:10090000034BD150BD4680BD00000150188000004F
:100910001C80000080B500AF00F06AF900F018F903
:10092000FFF78EFD00F00AF800F036F800F0D0F87E
:10093000FFF738FEFFF76CFFFEE7C04680B500AF5B
:10094000134B134A526801210A435A60104A104956
:100950008023CB588021090119438023D1500C4AB0
:1009600094230121D1500B4B0A4A126807210A43F4
:100970001A60084B074A526802210A435A60054B25
:10098000044A126902210A431A61BD4680BDC0466D
:10099000008004400000044080B500AF324A324974
:1009A0008023CB58402119438023D1502F4A2F490F
:1009B000B023CB5803218B4302211943B023D150DC
:1009C0002A4B2A4AD26C1B218A4302210A43DA6449
:1009D000264B264A526E1B218A4301210A435A663E
:1009E000224B224A126E1B218A4301210A431A66B6
:1009F0001E4B1E4AD26903218A43DA61A023DA051D
:100A0000A023D90580231B02CB580421194380233E
:100A10001B02D150A023DA05A023D905144BCB58D3
:100A20000421181C8843011C114BD1500F4A0F4957
:100A30008423CB580321181C8843011C8423D150E4
:100A40000C4A0C4980231B02CB58012119438023F7
:100A50001B02D150074A0749054BCB5801211943C6
:100A6000034BD150BD4680BD00800440004004408F
:100A7000FC3F00000000035080B582B000AF021CB4
:100A8000FB1D1A70054BDA6812231340FAD0034B92
:100A9000FA1D12789A60BD4602B080BD0000044085
:100AA00080B582B000AF021CFB1D1A70074BDA68DC
:100AB00012231340FAD0054BFA1D12789A60034BAB
:100AC0009B68DBB2181CBD4602B080BD000004402C
:100AD00098B500AF084C094B1B68181C084900F07A
:100AE00006FC031C013B6360034B034A12680421AC
:100AF0000A431A60BD4698BD10E000E000000010F7
:100B000040420F0080B584B000AF78600F4B0F4AB1
:100B1000126801210A431A600023FB6008E00B4BB6
:100B20001A6880235B021340F9D0FB680133FB6035
:100B3000FA687B689A42F2D3044B044A1268012196
:100B40008A431A60BD4604B080BDC04610E000E094
:100B500038B5234C1F25626A616AD205214B120FFA
:100B6000294092004900D058023100F0C0FB226FAA
:100B70000321231C0A401C4C022A26D08A4209D099
:100B8000012A05D11A6C0A40022A1ED0032A1ED05F
:100B9000164A1DE0196C0A40022A0DD0032A16D00D
:100BA000C0209A6840001149024203D19A6815405A
:100BB0000135694321600CE0C0229968520011425E
:100BC00003D19A68154001356843206001E0002296
:100BD0002260996F206800F08AFB206038BDC04613
:100BE00000800440B413000000000010001BB70098
:100BF0001D4B8E22920099582020814310B59950A8
:100C000000221A62C822C046013A002AFBD1012103
:100C1000196459645A645964596C134AC807FBD55E
:100C2000232191608E21890050588024A043505088
:100C3000D86801210C4A0842FAD00320106700202E
:100C4000516750675167596F01221142FBD0064B23
:100C500006499A67064BD967064B1A60064B1A601D
:100C6000064B1A6010BDC046008004405F000100C2
:100C70000480044094800440988004409C80044098
:100C800008B50020011C021C00F004F8FFF742FE2A
:100C900008BD000070B5244CA02200215200201C89
:100CA00000F098F8C02000F0C1F9204D0021C022CA
:100CB000286000F08FF828680023282218215A4362
:100CC0005943A218411801335162082BF5D1221C57
:100CD0001749002000F0A4F8802280235B01201C2B
:100CE0000021D20000F028F8261C124D2836291CBD
:100CF000321C012000F094F880228023301C5B011C
:100D000050340021D20000F017F8291C221C0220C8
:100D100000F086F880228023201C0021D2005B0195
:100D200000F00AF870BDC046180000101400001052
:100D3000F4130000F6130000F0B5C5680124AE07F7
:100D40001AD08026B600B2420BD08026F600B242FE
:100D500004D08026A640B2420ED102E0416A231C94
:100D600004E0064E5F1E0124B74205D82A43016104
:100D70000160C361C2600024201CF0BDFEFFFF00C3
:100D800010B5411C820706D00130431E1B78002B92
:100D9000F8D1401A18E003680C4A9C180C4A9C438E
:100DA000144201D10430F6E7DCB2421C002C0AD018
:100DB000FF242402821C234205D0FF242404C21CE9
:100DC000234200D0021D501A10BDC046FFFEFEFE99
:100DD0008080808008B500F0C4FA08BDC268202376
:100DE0009A43436A10B5041CE2605B6882699A42C8
:100DF0000DD000F049F8E268074B1340102213436E
:100E0000626AE3605368A361236993602360E268C8
:100E1000024B1340E36010BDEFCFFFFFBFBFFFFFEA
:100E200070B50D1C061C101C141C00F00FF92B785B
:100E3000722B06D0772B07D0612B20D10823114AC3
:100E400004E00023012201E0042302220135297875
:100E50002B2905D0622908D104210A43012102E08F
:100E600003210A4302210B43F0E7E26066611A079F
:100E700006D5201C0021022200F03AF900E00024EF
:100E8000201C70BD0280000038B5436A041C05694F
:100E900002689968C36813481840E06082201840CF
:100EA000022802D0012040421AE08020400218406F
:100EB00016D0914200D2111CA94209D1636AE2689E
:100EC0009D60094B002013402560A060E36007E0AF
:100ED000491B281C221C00F009F80028EED0E1E78D
:100EE00038BDC046FFFFF7FFFFFFFEFFF7B5D5682F
:100EF00001900E1C141C5769EA0205D51023381CFA
:100F00001D4300F047FAA061114B1D4208D0381C68
:100F1000A16900F048FA002813DB0E4B1D40E56084
:100F2000321C381C0199FFF721FB801B431E98419E
:100F3000404243005B08F61AA3699E19A661002887
:100F400005D0E268802313430120E3604042FEBDE8
:100F500010000200EFFFFDFFF8B52F4FC51C3C68E5
:100F6000AD0800280FD0002606E0216880235B052D
:100F7000994215D0261CA468002CF6D10C3000F044
:100F800063F9421C3CD1002045E0166880214905E8
:100F90008E4209D1516892685B1803336360A26086
:100FA000A2686368002AF0D1AB4206DBE91C9942D3
:100FB00003DB80239B05236020E0291C0A318B4240
:100FC00010D980218905201C21600C30A90041180E
:100FD0006560A1605B1B80246405033B0C604B6073
:100FE0008A6018E0002AC5D19B00C01A00F02CF9D5
:100FF0000130C8D080239B0523606560201C09E078
:1010000080239B05036045608460002E01D1386019
:1010100000E0B0600C30F8BD58010010002803D08B
:1010200080230C385B0503607047000010B5FFF7A4
:1010300093FF041E05D104491722FFF797FA00F029
:10104000A5F9201C10BDC046F8130000F0B5436A96
:10105000C5688BB0041C476906690193AB0726D0AD
:101060002B0716D400F02AF8381C00F090F92B0555
:1010700002D5301CFFF7D2FF0F4BAD0DAD059D42E1
:1010800007D102A8216A202200F090F902A800F0FE
:10109000D1F800211822606AFFF79CFE201C002175
:1010A0002822FFF797FE019B0020636201E00120E8
:1010B00040420BB0F0BDC046000080AD38B50028FE
:1010C00003D000F0E1F8051C0EE0041C051C0748E5
:1010D000201800F0D9F8002801D001256D42A02386
:1010E00028345B009C42F2D1281C38BD1800001047
:1010F000F7B53B4B0D1CC168041C161C47690091D9
:10110000194269D0381C00F048F90190002863D1D9
:10111000012E04D0022E07D0002E5DD123E0201C2A
:1011200000F062F82D181EE0381C00F033F9E16879
:10113000002804DA80231943E16001264DE0626A49
:10114000266893689E4200D9331CA6699B192669BC
:101150009B1B8E0603D55268934200DA131C834210
:1011600000DA031CED18002D36DB009E636AB6041E
:1011700004D522689968914200D29A60A1698D4293
:101180000DDB20689A68824200D2021C2069561842
:10119000361AB54203DCDF68CE19B54207DB009E84
:1011A00000212022A160616032435D6010E0009E5A
:1011B0006D1AB60701D5EF1BA760009EF60702D592
:1011C000821AAA186260009A4519202325609A4362
:1011D000044B1A40E26001E0022601960198FEBD30
:1011E00003001000BFCFF7FFC368990705D1104B6C
:1011F000212201201A60404218E0202219030BD559
:10120000134202D0436A586804E0036881695A189F
:101210000369D01A013809E0134202D0436A5868C2
:1012200004E0036881695A180369D01A7047C04600
:101230001000001010B5041CFFF7A2FD011C201CBB
:1012400000F0AEF810BD000070B50C4C2368002B08
:1012500001D10B4B2360C61C256803239E43AE19A6
:10126000301C00F035F8002802D12660281C04E06C
:10127000044B0C2201201A60404270BD5C0100103A
:101280006001001010000010C36870B5041C03203A
:1012900018401AD09A0605D5636A201C5D68FFF7CE
:1012A0009DFD04E02368A2699D182369ED1AE26898
:1012B000064B201C1340E360FFF7E6FD291C061CCB
:1012C0000022201CFFF714FF301C70BDFFCFFFFF72
:1012D000044B002B04D0002298425241101C00E025
:1012E000181C70470000000003000B4321D40029A4
:1012F00031D00122D207030901E009011209994204
:10130000FBD9430801E0490052089942FBD900E0AB
:101310004908401A07D35241FAD301461046704794
:1013200049084018F7D29218FAD3401801461046DF
:101330007047CB0F00D04942021000D540425340C5
:1013400008B5FFF7D4FF0CBC521000D34042002A6E
:1013500000D549421847F446002000F001F86047E4
:1013600070478446043A09D3830707D109060B0A5C
:1013700019430B0C1943043A02C0FCD2043203D0C7
:1013800001700130013AFBD160467047FEE7012051
:101390004042704701204042704701204042704760
:1013A00001204042704701204042704701204042E6
:1013B00070470000801A060020A1070000350C00CD
:1013C000E0C81000C05C1500006A180040771B00E0
:1013D00080841E00C0912100009F240040AC2700A3
:1013E000E032290020402C00604D2F0000D4300056
:1013F00040E13300720077002A2A2A205F43737984
:10140000735F616C6C6F63206661696C65640A0070
:04141000006CDC028E
:0400000300000149AF
:00000001FF
